:100000000C942A000C9463000C9486000C94A900B4
:100010000C9447000C9447000C9447000C94470044
:100020000C9447000C9447000C9447000C94470034
:100030000C9447000C9447000C9447000C94470024
:100040000C9447000C9447000C9447000C94470014
:100050000C94470011241FBECFE5D8E0DEBFCDBF12
:1000600010E0A0E6B0E0ECE9F1E002C005900D92EE
:10007000A036B107D9F710E0A0E6B0E001C01D92AC
:10008000A036B107E1F70E945E000C94CC000C94FE
:10009000000085B7856085BF84B7806484BF8BB757
:1000A000806E8BBF789408958A988B98BA98C29A7C
:1000B000929A939A8FEF8ABB1BBA08950E944900C7
:1000C0000E945400FFCF1F920F920FB60F9211247F
:1000D0008F939F93AF93BF93D89A8FE39DE0A3E054
:1000E00081509040A040E1F700C00000D898A3ECF8
:1000F000B9E01197F1F700C00000BF91AF919F9157
:100100008F910F900FBE0F901F9018951F920F9216
:100110000FB60F9211248F939F93AF93BF93D99AE9
:100120008FE39DE0A3E081509040A040E1F700C044
:100130000000D998A3ECB9E01197F1F700C00000D6
:10014000BF91AF919F918F910F900FBE0F901F9015
:1001500018951F920F920FB60F9211248F939F93B1
:10016000AF93BF93DA9A8FE39DE0A3E08150904074
:10017000A040E1F700C00000DA98A3ECB9E01197C5
:10018000F1F700C00000BF91AF919F918F910F9048
:0C0190000FBE0F901F901895F894FFCF41
:00000001FF
